{
  "_format": "hh-sol-artifact-1",
  "contractName": "LiquidityPool",
  "sourceName": "contracts/LiquidityPool.sol",
  "abi": [
    {
      "inputs": [
        {
          "internalType": "address",
          "name": "_depositTokenAddress",
          "type": "address"
        },
        {
          "internalType": "string",
          "name": "_lpTokenName",
          "type": "string"
        },
        {
          "internalType": "string",
          "name": "_lpTokenSymbol",
          "type": "string"
        }
      ],
      "stateMutability": "nonpayable",
      "type": "constructor"
    },
    {
      "anonymous": false,
      "inputs": [
        {
          "indexed": true,
          "internalType": "address",
          "name": "account",
          "type": "address"
        },
        {
          "indexed": true,
          "internalType": "uint256",
          "name": "lpTokensMinted",
          "type": "uint256"
        },
        {
          "indexed": true,
          "internalType": "uint256",
          "name": "depositedAmount",
          "type": "uint256"
        }
      ],
      "name": "Deposited",
      "type": "event"
    },
    {
      "anonymous": false,
      "inputs": [
        {
          "indexed": true,
          "internalType": "address",
          "name": "account",
          "type": "address"
        },
        {
          "indexed": true,
          "internalType": "uint256",
          "name": "lpTokensBurned",
          "type": "uint256"
        },
        {
          "indexed": true,
          "internalType": "uint256",
          "name": "withdrawnAmount",
          "type": "uint256"
        }
      ],
      "name": "Withdrawn",
      "type": "event"
    },
    {
      "inputs": [
        {
          "internalType": "uint256",
          "name": "_amount",
          "type": "uint256"
        }
      ],
      "name": "deposit",
      "outputs": [],
      "stateMutability": "nonpayable",
      "type": "function"
    },
    {
      "inputs": [],
      "name": "depositTokenAddress",
      "outputs": [
        {
          "internalType": "address",
          "name": "",
          "type": "address"
        }
      ],
      "stateMutability": "view",
      "type": "function"
    },
    {
      "inputs": [],
      "name": "liquidityFunds",
      "outputs": [
        {
          "internalType": "uint256",
          "name": "",
          "type": "uint256"
        }
      ],
      "stateMutability": "view",
      "type": "function"
    },
    {
      "inputs": [],
      "name": "lpToken",
      "outputs": [
        {
          "internalType": "contract LPToken",
          "name": "",
          "type": "address"
        }
      ],
      "stateMutability": "view",
      "type": "function"
    },
    {
      "inputs": [
        {
          "internalType": "address",
          "name": "",
          "type": "address"
        }
      ],
      "name": "userDeposits",
      "outputs": [
        {
          "internalType": "uint256",
          "name": "",
          "type": "uint256"
        }
      ],
      "stateMutability": "view",
      "type": "function"
    },
    {
      "inputs": [
        {
          "internalType": "uint256",
          "name": "_amount",
          "type": "uint256"
        }
      ],
      "name": "withdraw",
      "outputs": [],
      "stateMutability": "nonpayable",
      "type": "function"
    }
  ],
  "bytecode": "0x608060405234801562000010575f80fd5b5060405162001a7138038062001a71833981016040819052620000339162000185565b600180546001600160a01b0319166001600160a01b038516179055604051829082906200006090620000b1565b6200006d92919062000236565b604051809103905ff08015801562000087573d5f803e3d5ffd5b505f80546001600160a01b0319166001600160a01b03929092169190911790555062000267915050565b610f798062000af883390190565b634e487b7160e01b5f52604160045260245ffd5b5f5b83811015620000ef578181015183820152602001620000d5565b50505f910152565b5f82601f83011262000107575f80fd5b81516001600160401b0380821115620001245762000124620000bf565b604051601f8301601f19908116603f011681019082821181831017156200014f576200014f620000bf565b8160405283815286602085880101111562000168575f80fd5b6200017b846020830160208901620000d3565b9695505050505050565b5f805f6060848603121562000198575f80fd5b83516001600160a01b0381168114620001af575f80fd5b60208501519093506001600160401b0380821115620001cc575f80fd5b620001da87838801620000f7565b93506040860151915080821115620001f0575f80fd5b50620001ff86828701620000f7565b9150509250925092565b5f815180845262000222816020860160208601620000d3565b601f01601f19169290920160200192915050565b604081525f6200024a604083018562000209565b82810360208401526200025e818562000209565b95945050505050565b61088380620002755f395ff3fe608060405234801561000f575f80fd5b5060043610610060575f3560e01c80630ba36dcd1461006457806323dc9e37146100965780632e1a7d4d146100c15780635fcbd285146100d657806398106aab146100e8578063b6b55f25146100f1575b5f80fd5b610083610072366004610799565b60036020525f908152604090205481565b6040519081526020015b60405180910390f35b6001546100a9906001600160a01b031681565b6040516001600160a01b03909116815260200161008d565b6100d46100cf3660046107c6565b610104565b005b5f546100a9906001600160a01b031681565b61008360025481565b6100d46100ff3660046107c6565b6104e3565b805f81116101595760405162461bcd60e51b815260206004820152601f60248201527f416d6f756e742073686f756c642062652067726561746572207468616e20300060448201526064015b60405180910390fd5b335f908152600360205260409020548211156101c75760405162461bcd60e51b815260206004820152602760248201527f416d6f756e742069732067726561746572207468616e206465706f736974656460448201526620746f6b656e7360c81b6064820152608401610150565b5f546040516370a0823160e01b815233600482015283916001600160a01b0316906370a0823190602401602060405180830381865afa15801561020c573d5f803e3d5ffd5b505050506040513d601f19601f8201168201806040525081019061023091906107dd565b10156102775760405162461bcd60e51b8152602060048201526016602482015275496e73756666696369656e74204c5020746f6b656e7360501b6044820152606401610150565b6001546040516370a0823160e01b815230600482015283916001600160a01b0316906370a0823190602401602060405180830381865afa1580156102bd573d5f803e3d5ffd5b505050506040513d601f19601f820116820180604052508101906102e191906107dd565b101561034a5760405162461bcd60e51b815260206004820152603260248201527f496e73756666696369656e74206465706f73697420746f6b656e7320686f6c64604482015271195908189e481d1a194818dbdb9d1c9858dd60721b6064820152608401610150565b600254610357908361077a565b600255335f90815260036020526040902054610373908361077a565b335f8181526003602052604080822093909355549151632770a7eb60e21b81526004810191909152602481018490526001600160a01b0390911690639dc29fac906044015f604051808303815f87803b1580156103ce575f80fd5b505af11580156103e0573d5f803e3d5ffd5b505060015460405163a9059cbb60e01b8152336004820152602481018690526001600160a01b03909116925063a9059cbb91506044016020604051808303815f875af1158015610432573d5f803e3d5ffd5b505050506040513d601f19601f8201168201806040525081019061045691906107f4565b6104b15760405162461bcd60e51b815260206004820152602660248201527f4661696c656420746f207472616e73666572206261636b206465706f73697420604482015265746f6b656e7360d01b6064820152608401610150565b6040518290819033907f92ccf450a286a957af52509bc1c9939d1a6a481783e142e41e2499f0bb66ebc6905f90a45050565b805f81116105335760405162461bcd60e51b815260206004820152601f60248201527f416d6f756e742073686f756c642062652067726561746572207468616e2030006044820152606401610150565b600154604051636eb1769f60e11b815233600482015230602482015283916001600160a01b03169063dd62ed3e90604401602060405180830381865afa15801561057f573d5f803e3d5ffd5b505050506040513d601f19601f820116820180604052508101906105a391906107dd565b10156105e45760405162461bcd60e51b815260206004820152601060248201526f417070726f76616c2070656e64696e6760801b6044820152606401610150565b6001546040516323b872dd60e01b8152336004820152306024820152604481018490526001600160a01b03909116906323b872dd906064016020604051808303815f875af1158015610638573d5f803e3d5ffd5b505050506040513d601f19601f8201168201806040525081019061065c91906107f4565b6106b25760405162461bcd60e51b815260206004820152602160248201527f4661696c656420746f207472616e73666572206465706f73697420746f6b656e6044820152607360f81b6064820152608401610150565b335f908152600360205260409020546106cb908361078e565b335f908152600360205260409020556002546106e7908361078e565b6002555f546040516340c10f1960e01b8152336004820152602481018490526001600160a01b03909116906340c10f19906044015f604051808303815f87803b158015610732575f80fd5b505af1158015610744573d5f803e3d5ffd5b505060405184925082915033907f73a19dd210f1a7f902193214c0ee91dd35ee5b4d920cba8d519eca65a7b488ca905f90a45050565b5f6107858284610827565b90505b92915050565b5f610785828461083a565b5f602082840312156107a9575f80fd5b81356001600160a01b03811681146107bf575f80fd5b9392505050565b5f602082840312156107d6575f80fd5b5035919050565b5f602082840312156107ed575f80fd5b5051919050565b5f60208284031215610804575f80fd5b815180151581146107bf575f80fd5b634e487b7160e01b5f52601160045260245ffd5b8181038181111561078857610788610813565b808201808211156107885761078861081356fea2646970667358221220dd4d60d483ae2e82a5d91da3fe148c87843297c5456225778bb854f4d4e1cbc964736f6c63430008140033608060405234801562000010575f80fd5b5060405162000f7938038062000f7983398101604081905262000033916200018a565b818160036200004383826200027c565b5060046200005282826200027c565b5050506200006f620000696200007760201b60201c565b6200007b565b505062000344565b3390565b600580546001600160a01b038381166001600160a01b0319831681179093556040519116919082907f8be0079c531659141344cd1fd0a4f28419497f9722a3daafe3b4186f6b6457e0905f90a35050565b634e487b7160e01b5f52604160045260245ffd5b5f82601f830112620000f0575f80fd5b81516001600160401b03808211156200010d576200010d620000cc565b604051601f8301601f19908116603f01168101908282118183101715620001385762000138620000cc565b8160405283815260209250868385880101111562000154575f80fd5b5f91505b8382101562000177578582018301518183018401529082019062000158565b5f93810190920192909252949350505050565b5f80604083850312156200019c575f80fd5b82516001600160401b0380821115620001b3575f80fd5b620001c186838701620000e0565b93506020850151915080821115620001d7575f80fd5b50620001e685828601620000e0565b9150509250929050565b600181811c908216806200020557607f821691505b6020821081036200022457634e487b7160e01b5f52602260045260245ffd5b50919050565b601f82111562000277575f81815260208120601f850160051c81016020861015620002525750805b601f850160051c820191505b8181101562000273578281556001016200025e565b5050505b505050565b81516001600160401b03811115620002985762000298620000cc565b620002b081620002a98454620001f0565b846200022a565b602080601f831160018114620002e6575f8415620002ce5750858301515b5f19600386901b1c1916600185901b17855562000273565b5f85815260208120601f198616915b828110156200031657888601518255948401946001909101908401620002f5565b50858210156200033457878501515f19600388901b60f8161c191681555b5050505050600190811b01905550565b610c2780620003525f395ff3fe608060405234801561000f575f80fd5b50600436106100fb575f3560e01c8063715018a611610093578063a457c2d711610063578063a457c2d714610202578063a9059cbb14610215578063dd62ed3e14610228578063f2fde38b1461023b575f80fd5b8063715018a6146101c45780638da5cb5b146101cc57806395d89b41146101e75780639dc29fac146101ef575f80fd5b8063313ce567116100ce578063313ce56714610165578063395093511461017457806340c10f191461018757806370a082311461019c575f80fd5b806306fdde03146100ff578063095ea7b31461011d57806318160ddd1461014057806323b872dd14610152575b5f80fd5b61010761024e565b6040516101149190610a82565b60405180910390f35b61013061012b366004610ae8565b6102de565b6040519015158152602001610114565b6002545b604051908152602001610114565b610130610160366004610b10565b6102f7565b60405160128152602001610114565b610130610182366004610ae8565b61031a565b61019a610195366004610ae8565b61033b565b005b6101446101aa366004610b49565b6001600160a01b03165f9081526020819052604090205490565b61019a610351565b6005546040516001600160a01b039091168152602001610114565b610107610364565b61019a6101fd366004610ae8565b610373565b610130610210366004610ae8565b610385565b610130610223366004610ae8565b610404565b610144610236366004610b69565b610411565b61019a610249366004610b49565b61043b565b60606003805461025d90610b9a565b80601f016020809104026020016040519081016040528092919081815260200182805461028990610b9a565b80156102d45780601f106102ab576101008083540402835291602001916102d4565b820191905f5260205f20905b8154815290600101906020018083116102b757829003601f168201915b5050505050905090565b5f336102eb8185856104b4565b60019150505b92915050565b5f336103048582856105d8565b61030f858585610650565b506001949350505050565b5f336102eb81858561032c8383610411565b6103369190610bd2565b6104b4565b6103436107f2565b61034d828261084c565b5050565b6103596107f2565b6103625f610909565b565b60606004805461025d90610b9a565b61037b6107f2565b61034d828261095a565b5f33816103928286610411565b9050838110156103f75760405162461bcd60e51b815260206004820152602560248201527f45524332303a2064656372656173656420616c6c6f77616e63652062656c6f77604482015264207a65726f60d81b60648201526084015b60405180910390fd5b61030f82868684036104b4565b5f336102eb818585610650565b6001600160a01b039182165f90815260016020908152604080832093909416825291909152205490565b6104436107f2565b6001600160a01b0381166104a85760405162461bcd60e51b815260206004820152602660248201527f4f776e61626c653a206e6577206f776e657220697320746865207a65726f206160448201526564647265737360d01b60648201526084016103ee565b6104b181610909565b50565b6001600160a01b0383166105165760405162461bcd60e51b8152602060048201526024808201527f45524332303a20617070726f76652066726f6d20746865207a65726f206164646044820152637265737360e01b60648201526084016103ee565b6001600160a01b0382166105775760405162461bcd60e51b815260206004820152602260248201527f45524332303a20617070726f766520746f20746865207a65726f206164647265604482015261737360f01b60648201526084016103ee565b6001600160a01b038381165f8181526001602090815260408083209487168084529482529182902085905590518481527f8c5be1e5ebec7d5bd14f71427d1e84f3dd0314c0f7b2291e5b200ac8c7c3b92591015b60405180910390a3505050565b5f6105e38484610411565b90505f19811461064a578181101561063d5760405162461bcd60e51b815260206004820152601d60248201527f45524332303a20696e73756666696369656e7420616c6c6f77616e636500000060448201526064016103ee565b61064a84848484036104b4565b50505050565b6001600160a01b0383166106b45760405162461bcd60e51b815260206004820152602560248201527f45524332303a207472616e736665722066726f6d20746865207a65726f206164604482015264647265737360d81b60648201526084016103ee565b6001600160a01b0382166107165760405162461bcd60e51b815260206004820152602360248201527f45524332303a207472616e7366657220746f20746865207a65726f206164647260448201526265737360e81b60648201526084016103ee565b6001600160a01b0383165f908152602081905260409020548181101561078d5760405162461bcd60e51b815260206004820152602660248201527f45524332303a207472616e7366657220616d6f756e7420657863656564732062604482015265616c616e636560d01b60648201526084016103ee565b6001600160a01b038481165f81815260208181526040808320878703905593871680835291849020805487019055925185815290927fddf252ad1be2c89b69c2b068fc378daa952ba7f163c4a11628f55a4df523b3ef910160405180910390a361064a565b6005546001600160a01b031633146103625760405162461bcd60e51b815260206004820181905260248201527f4f776e61626c653a2063616c6c6572206973206e6f7420746865206f776e657260448201526064016103ee565b6001600160a01b0382166108a25760405162461bcd60e51b815260206004820152601f60248201527f45524332303a206d696e7420746f20746865207a65726f20616464726573730060448201526064016103ee565b8060025f8282546108b39190610bd2565b90915550506001600160a01b0382165f81815260208181526040808320805486019055518481527fddf252ad1be2c89b69c2b068fc378daa952ba7f163c4a11628f55a4df523b3ef910160405180910390a35050565b600580546001600160a01b038381166001600160a01b0319831681179093556040519116919082907f8be0079c531659141344cd1fd0a4f28419497f9722a3daafe3b4186f6b6457e0905f90a35050565b6001600160a01b0382166109ba5760405162461bcd60e51b815260206004820152602160248201527f45524332303a206275726e2066726f6d20746865207a65726f206164647265736044820152607360f81b60648201526084016103ee565b6001600160a01b0382165f9081526020819052604090205481811015610a2d5760405162461bcd60e51b815260206004820152602260248201527f45524332303a206275726e20616d6f756e7420657863656564732062616c616e604482015261636560f01b60648201526084016103ee565b6001600160a01b0383165f818152602081815260408083208686039055600280548790039055518581529192917fddf252ad1be2c89b69c2b068fc378daa952ba7f163c4a11628f55a4df523b3ef91016105cb565b5f6020808352835180828501525f5b81811015610aad57858101830151858201604001528201610a91565b505f604082860101526040601f19601f8301168501019250505092915050565b80356001600160a01b0381168114610ae3575f80fd5b919050565b5f8060408385031215610af9575f80fd5b610b0283610acd565b946020939093013593505050565b5f805f60608486031215610b22575f80fd5b610b2b84610acd565b9250610b3960208501610acd565b9150604084013590509250925092565b5f60208284031215610b59575f80fd5b610b6282610acd565b9392505050565b5f8060408385031215610b7a575f80fd5b610b8383610acd565b9150610b9160208401610acd565b90509250929050565b600181811c90821680610bae57607f821691505b602082108103610bcc57634e487b7160e01b5f52602260045260245ffd5b50919050565b808201808211156102f157634e487b7160e01b5f52601160045260245ffdfea26469706673582212201df278b211c20a7406b635480e61083ce88c86d9d8b7dc22190ab0c649849a0764736f6c63430008140033",
  "linkReferences": {},
  "deployedLinkReferences": {}
}