{
  "_format": "hh-sol-artifact-1",
  "contractName": "DepositToken",
  "sourceName": "contracts/DepositToken.sol",
  "abi": [
    {
      "inputs": [
        {
          "internalType": "string",
          "name": "_name",
          "type": "string"
        },
        {
          "internalType": "string",
          "name": "_symbol",
          "type": "string"
        },
        {
          "internalType": "uint256",
          "name": "_initialSupply",
          "type": "uint256"
        }
      ],
      "stateMutability": "nonpayable",
      "type": "constructor"
    },
    {
      "anonymous": false,
      "inputs": [
        {
          "indexed": true,
          "internalType": "address",
          "name": "owner",
          "type": "address"
        },
        {
          "indexed": true,
          "internalType": "address",
          "name": "spender",
          "type": "address"
        },
        {
          "indexed": false,
          "internalType": "uint256",
          "name": "value",
          "type": "uint256"
        }
      ],
      "name": "Approval",
      "type": "event"
    },
    {
      "anonymous": false,
      "inputs": [
        {
          "indexed": true,
          "internalType": "address",
          "name": "from",
          "type": "address"
        },
        {
          "indexed": true,
          "internalType": "address",
          "name": "to",
          "type": "address"
        },
        {
          "indexed": false,
          "internalType": "uint256",
          "name": "value",
          "type": "uint256"
        }
      ],
      "name": "Transfer",
      "type": "event"
    },
    {
      "inputs": [
        {
          "internalType": "address",
          "name": "owner",
          "type": "address"
        },
        {
          "internalType": "address",
          "name": "spender",
          "type": "address"
        }
      ],
      "name": "allowance",
      "outputs": [
        {
          "internalType": "uint256",
          "name": "",
          "type": "uint256"
        }
      ],
      "stateMutability": "view",
      "type": "function"
    },
    {
      "inputs": [
        {
          "internalType": "address",
          "name": "spender",
          "type": "address"
        },
        {
          "internalType": "uint256",
          "name": "amount",
          "type": "uint256"
        }
      ],
      "name": "approve",
      "outputs": [
        {
          "internalType": "bool",
          "name": "",
          "type": "bool"
        }
      ],
      "stateMutability": "nonpayable",
      "type": "function"
    },
    {
      "inputs": [
        {
          "internalType": "address",
          "name": "account",
          "type": "address"
        }
      ],
      "name": "balanceOf",
      "outputs": [
        {
          "internalType": "uint256",
          "name": "",
          "type": "uint256"
        }
      ],
      "stateMutability": "view",
      "type": "function"
    },
    {
      "inputs": [
        {
          "internalType": "uint256",
          "name": "amount",
          "type": "uint256"
        }
      ],
      "name": "burn",
      "outputs": [],
      "stateMutability": "nonpayable",
      "type": "function"
    },
    {
      "inputs": [
        {
          "internalType": "address",
          "name": "account",
          "type": "address"
        },
        {
          "internalType": "uint256",
          "name": "amount",
          "type": "uint256"
        }
      ],
      "name": "burnFrom",
      "outputs": [],
      "stateMutability": "nonpayable",
      "type": "function"
    },
    {
      "inputs": [],
      "name": "decimals",
      "outputs": [
        {
          "internalType": "uint8",
          "name": "",
          "type": "uint8"
        }
      ],
      "stateMutability": "view",
      "type": "function"
    },
    {
      "inputs": [
        {
          "internalType": "address",
          "name": "spender",
          "type": "address"
        },
        {
          "internalType": "uint256",
          "name": "subtractedValue",
          "type": "uint256"
        }
      ],
      "name": "decreaseAllowance",
      "outputs": [
        {
          "internalType": "bool",
          "name": "",
          "type": "bool"
        }
      ],
      "stateMutability": "nonpayable",
      "type": "function"
    },
    {
      "inputs": [
        {
          "internalType": "address",
          "name": "spender",
          "type": "address"
        },
        {
          "internalType": "uint256",
          "name": "addedValue",
          "type": "uint256"
        }
      ],
      "name": "increaseAllowance",
      "outputs": [
        {
          "internalType": "bool",
          "name": "",
          "type": "bool"
        }
      ],
      "stateMutability": "nonpayable",
      "type": "function"
    },
    {
      "inputs": [
        {
          "internalType": "address",
          "name": "_to",
          "type": "address"
        },
        {
          "internalType": "uint256",
          "name": "_amount",
          "type": "uint256"
        }
      ],
      "name": "mintTokens",
      "outputs": [],
      "stateMutability": "nonpayable",
      "type": "function"
    },
    {
      "inputs": [],
      "name": "name",
      "outputs": [
        {
          "internalType": "string",
          "name": "",
          "type": "string"
        }
      ],
      "stateMutability": "view",
      "type": "function"
    },
    {
      "inputs": [],
      "name": "symbol",
      "outputs": [
        {
          "internalType": "string",
          "name": "",
          "type": "string"
        }
      ],
      "stateMutability": "view",
      "type": "function"
    },
    {
      "inputs": [],
      "name": "totalSupply",
      "outputs": [
        {
          "internalType": "uint256",
          "name": "",
          "type": "uint256"
        }
      ],
      "stateMutability": "view",
      "type": "function"
    },
    {
      "inputs": [
        {
          "internalType": "address",
          "name": "to",
          "type": "address"
        },
        {
          "internalType": "uint256",
          "name": "amount",
          "type": "uint256"
        }
      ],
      "name": "transfer",
      "outputs": [
        {
          "internalType": "bool",
          "name": "",
          "type": "bool"
        }
      ],
      "stateMutability": "nonpayable",
      "type": "function"
    },
    {
      "inputs": [
        {
          "internalType": "address",
          "name": "from",
          "type": "address"
        },
        {
          "internalType": "address",
          "name": "to",
          "type": "address"
        },
        {
          "internalType": "uint256",
          "name": "amount",
          "type": "uint256"
        }
      ],
      "name": "transferFrom",
      "outputs": [
        {
          "internalType": "bool",
          "name": "",
          "type": "bool"
        }
      ],
      "stateMutability": "nonpayable",
      "type": "function"
    }
  ],
  "bytecode": "0x608060405234801562000010575f80fd5b5060405162000ec238038062000ec28339810160408190526200003391620001f7565b82826003620000438382620002f0565b506004620000528282620002f0565b5050506200006733826200007060201b60201c565b505050620003de565b6001600160a01b038216620000cb5760405162461bcd60e51b815260206004820152601f60248201527f45524332303a206d696e7420746f20746865207a65726f206164647265737300604482015260640160405180910390fd5b8060025f828254620000de9190620003b8565b90915550506001600160a01b0382165f81815260208181526040808320805486019055518481527fddf252ad1be2c89b69c2b068fc378daa952ba7f163c4a11628f55a4df523b3ef910160405180910390a35050565b505050565b634e487b7160e01b5f52604160045260245ffd5b5f82601f8301126200015d575f80fd5b81516001600160401b03808211156200017a576200017a62000139565b604051601f8301601f19908116603f01168101908282118183101715620001a557620001a562000139565b81604052838152602092508683858801011115620001c1575f80fd5b5f91505b83821015620001e45785820183015181830184015290820190620001c5565b5f93810190920192909252949350505050565b5f805f606084860312156200020a575f80fd5b83516001600160401b038082111562000221575f80fd5b6200022f878388016200014d565b9450602086015191508082111562000245575f80fd5b5062000254868287016200014d565b925050604084015190509250925092565b600181811c908216806200027a57607f821691505b6020821081036200029957634e487b7160e01b5f52602260045260245ffd5b50919050565b601f82111562000134575f81815260208120601f850160051c81016020861015620002c75750805b601f850160051c820191505b81811015620002e857828155600101620002d3565b505050505050565b81516001600160401b038111156200030c576200030c62000139565b62000324816200031d845462000265565b846200029f565b602080601f8311600181146200035a575f8415620003425750858301515b5f19600386901b1c1916600185901b178555620002e8565b5f85815260208120601f198616915b828110156200038a5788860151825594840194600190910190840162000369565b5085821015620003a857878501515f19600388901b60f8161c191681555b5050505050600190811b01905550565b80820180821115620003d857634e487b7160e01b5f52601160045260245ffd5b92915050565b610ad680620003ec5f395ff3fe608060405234801561000f575f80fd5b50600436106100e5575f3560e01c806370a0823111610088578063a457c2d711610063578063a457c2d7146101c9578063a9059cbb146101dc578063dd62ed3e146101ef578063f0dda65c14610202575f80fd5b806370a082311461018657806379cc6790146101ae57806395d89b41146101c1575f80fd5b806323b872dd116100c357806323b872dd1461013c578063313ce5671461014f578063395093511461015e57806342966c6814610171575f80fd5b806306fdde03146100e9578063095ea7b31461010757806318160ddd1461012a575b5f80fd5b6100f1610215565b6040516100fe919061091a565b60405180910390f35b61011a610115366004610980565b6102a5565b60405190151581526020016100fe565b6002545b6040519081526020016100fe565b61011a61014a3660046109a8565b6102be565b604051601281526020016100fe565b61011a61016c366004610980565b6102e1565b61018461017f3660046109e1565b610302565b005b61012e6101943660046109f8565b6001600160a01b03165f9081526020819052604090205490565b6101846101bc366004610980565b61030f565b6100f1610328565b61011a6101d7366004610980565b610337565b61011a6101ea366004610980565b6103b6565b61012e6101fd366004610a18565b6103c3565b610184610210366004610980565b6103ed565b60606003805461022490610a49565b80601f016020809104026020016040519081016040528092919081815260200182805461025090610a49565b801561029b5780601f106102725761010080835404028352916020019161029b565b820191905f5260205f20905b81548152906001019060200180831161027e57829003601f168201915b5050505050905090565b5f336102b28185856103f7565b60019150505b92915050565b5f336102cb85828561051b565b6102d6858585610593565b506001949350505050565b5f336102b28185856102f383836103c3565b6102fd9190610a81565b6103f7565b61030c3382610735565b50565b61031a82338361051b565b6103248282610735565b5050565b60606004805461022490610a49565b5f338161034482866103c3565b9050838110156103a95760405162461bcd60e51b815260206004820152602560248201527f45524332303a2064656372656173656420616c6c6f77616e63652062656c6f77604482015264207a65726f60d81b60648201526084015b60405180910390fd5b6102d682868684036103f7565b5f336102b2818585610593565b6001600160a01b039182165f90815260016020908152604080832093909416825291909152205490565b610324828261085d565b6001600160a01b0383166104595760405162461bcd60e51b8152602060048201526024808201527f45524332303a20617070726f76652066726f6d20746865207a65726f206164646044820152637265737360e01b60648201526084016103a0565b6001600160a01b0382166104ba5760405162461bcd60e51b815260206004820152602260248201527f45524332303a20617070726f766520746f20746865207a65726f206164647265604482015261737360f01b60648201526084016103a0565b6001600160a01b038381165f8181526001602090815260408083209487168084529482529182902085905590518481527f8c5be1e5ebec7d5bd14f71427d1e84f3dd0314c0f7b2291e5b200ac8c7c3b92591015b60405180910390a3505050565b5f61052684846103c3565b90505f19811461058d57818110156105805760405162461bcd60e51b815260206004820152601d60248201527f45524332303a20696e73756666696369656e7420616c6c6f77616e636500000060448201526064016103a0565b61058d84848484036103f7565b50505050565b6001600160a01b0383166105f75760405162461bcd60e51b815260206004820152602560248201527f45524332303a207472616e736665722066726f6d20746865207a65726f206164604482015264647265737360d81b60648201526084016103a0565b6001600160a01b0382166106595760405162461bcd60e51b815260206004820152602360248201527f45524332303a207472616e7366657220746f20746865207a65726f206164647260448201526265737360e81b60648201526084016103a0565b6001600160a01b0383165f90815260208190526040902054818110156106d05760405162461bcd60e51b815260206004820152602660248201527f45524332303a207472616e7366657220616d6f756e7420657863656564732062604482015265616c616e636560d01b60648201526084016103a0565b6001600160a01b038481165f81815260208181526040808320878703905593871680835291849020805487019055925185815290927fddf252ad1be2c89b69c2b068fc378daa952ba7f163c4a11628f55a4df523b3ef910160405180910390a361058d565b6001600160a01b0382166107955760405162461bcd60e51b815260206004820152602160248201527f45524332303a206275726e2066726f6d20746865207a65726f206164647265736044820152607360f81b60648201526084016103a0565b6001600160a01b0382165f90815260208190526040902054818110156108085760405162461bcd60e51b815260206004820152602260248201527f45524332303a206275726e20616d6f756e7420657863656564732062616c616e604482015261636560f01b60648201526084016103a0565b6001600160a01b0383165f818152602081815260408083208686039055600280548790039055518581529192917fddf252ad1be2c89b69c2b068fc378daa952ba7f163c4a11628f55a4df523b3ef910161050e565b6001600160a01b0382166108b35760405162461bcd60e51b815260206004820152601f60248201527f45524332303a206d696e7420746f20746865207a65726f20616464726573730060448201526064016103a0565b8060025f8282546108c49190610a81565b90915550506001600160a01b0382165f81815260208181526040808320805486019055518481527fddf252ad1be2c89b69c2b068fc378daa952ba7f163c4a11628f55a4df523b3ef910160405180910390a35050565b5f6020808352835180828501525f5b8181101561094557858101830151858201604001528201610929565b505f604082860101526040601f19601f8301168501019250505092915050565b80356001600160a01b038116811461097b575f80fd5b919050565b5f8060408385031215610991575f80fd5b61099a83610965565b946020939093013593505050565b5f805f606084860312156109ba575f80fd5b6109c384610965565b92506109d160208501610965565b9150604084013590509250925092565b5f602082840312156109f1575f80fd5b5035919050565b5f60208284031215610a08575f80fd5b610a1182610965565b9392505050565b5f8060408385031215610a29575f80fd5b610a3283610965565b9150610a4060208401610965565b90509250929050565b600181811c90821680610a5d57607f821691505b602082108103610a7b57634e487b7160e01b5f52602260045260245ffd5b50919050565b808201808211156102b857634e487b7160e01b5f52601160045260245ffdfea264697066735822122086c6d385cc3a8dde8ee04e4142ed8663d04d450693c800ec5a6c41a532ed5b6164736f6c63430008140033",
  "linkReferences": {},
  "deployedLinkReferences": {}
}